{
  "contractName": "SolidBank",
  "abi": [
    {
      "stateMutability": "payable",
      "type": "fallback"
    },
    {
      "stateMutability": "payable",
      "type": "receive"
    },
    {
      "inputs": [],
      "name": "getContractBalance",
      "outputs": [
        {
          "internalType": "uint256",
          "name": "",
          "type": "uint256"
        }
      ],
      "stateMutability": "view",
      "type": "function"
    },
    {
      "inputs": [],
      "name": "addBalance",
      "outputs": [],
      "stateMutability": "payable",
      "type": "function"
    },
    {
      "inputs": [],
      "name": "calculateBalances",
      "outputs": [
        {
          "internalType": "uint256",
          "name": "",
          "type": "uint256"
        }
      ],
      "stateMutability": "nonpayable",
      "type": "function"
    },
    {
      "inputs": [
        {
          "internalType": "address",
          "name": "userAddress",
          "type": "address"
        }
      ],
      "name": "getBalance",
      "outputs": [
        {
          "internalType": "uint256",
          "name": "",
          "type": "uint256"
        }
      ],
      "stateMutability": "view",
      "type": "function"
    },
    {
      "inputs": [],
      "name": "withdraw",
      "outputs": [],
      "stateMutability": "payable",
      "type": "function"
    }
  ],
  "bytecode": "0x60806040526000805573859e9d8a4edadfedb5a2ff311243af80f85a91b8600160006101000a81548173ffffffffffffffffffffffffffffffffffffffff021916908373ffffffffffffffffffffffffffffffffffffffff160217905550600160009054906101000a900473ffffffffffffffffffffffffffffffffffffffff16600260006101000a81548173ffffffffffffffffffffffffffffffffffffffff021916908373ffffffffffffffffffffffffffffffffffffffff1602179055503480156100cc57600080fd5b506109ac806100dc6000396000f3fe60806040526004361061004e5760003560e01c80633ccfd60b146100575780636f9fb98a146100615780637176e2331461008c578063b163cc38146100b7578063f8b2cb4f146100c157610055565b3661005557005b005b61005f6100fe565b005b34801561006d57600080fd5b5061007661030b565b6040516100839190610736565b60405180910390f35b34801561009857600080fd5b506100a1610314565b6040516100ae9190610736565b60405180910390f35b6100bf6103e6565b005b3480156100cd57600080fd5b506100e860048036038101906100e39190610630565b610500565b6040516100f59190610736565b60405180910390f35b6000339050600061010e33610500565b9050600260009054906101000a900473ffffffffffffffffffffffffffffffffffffffff1673ffffffffffffffffffffffffffffffffffffffff1663db006a75826040518263ffffffff1660e01b815260040161016b9190610736565b602060405180830381600087803b15801561018557600080fd5b505af1158015610199573d6000803e3d6000fd5b505050506040513d601f19601f820116820180604052508101906101bd9190610659565b5060008273ffffffffffffffffffffffffffffffffffffffff16826040516101e4906106e6565b60006040518083038185875af1925050503d8060008114610221576040519150601f19603f3d011682016040523d82523d6000602084013e610226565b606091505b505090508061026a576040517f08c379a000000000000000000000000000000000000000000000000000000000815260040161026190610716565b60405180910390fd5b600360003373ffffffffffffffffffffffffffffffffffffffff1673ffffffffffffffffffffffffffffffffffffffff168152602001908152602001600020546000808282546102ba919061084e565b925050819055506000600360003373ffffffffffffffffffffffffffffffffffffffff1673ffffffffffffffffffffffffffffffffffffffff16815260200190815260200160002081905550505050565b60008054905090565b60008061031f61030b565b9050600260009054906101000a900473ffffffffffffffffffffffffffffffffffffffff1673ffffffffffffffffffffffffffffffffffffffff166370a08231306040518263ffffffff1660e01b815260040161037c91906106fb565b60206040518083038186803b15801561039457600080fd5b505afa1580156103a8573d6000803e3d6000fd5b505050506040513d601f19601f820116820180604052508101906103cc9190610659565b600081905550806000546103e0919061084e565b91505090565b600260009054906101000a900473ffffffffffffffffffffffffffffffffffffffff1673ffffffffffffffffffffffffffffffffffffffff16631249c58b346040518263ffffffff1660e01b81526004016000604051808303818588803b15801561045057600080fd5b505af1158015610464573d6000803e3d6000fd5b5050505050610471610314565b600360003373ffffffffffffffffffffffffffffffffffffffff1673ffffffffffffffffffffffffffffffffffffffff168152602001908152602001600020546104bb919061076d565b600360003373ffffffffffffffffffffffffffffffffffffffff1673ffffffffffffffffffffffffffffffffffffffff16815260200190815260200160002081905550565b6000670de0b6b3a7640000600260009054906101000a900473ffffffffffffffffffffffffffffffffffffffff1673ffffffffffffffffffffffffffffffffffffffff1663182df0f56040518163ffffffff1660e01b815260040160206040518083038186803b15801561057357600080fd5b505afa158015610587573d6000803e3d6000fd5b505050506040513d601f19601f820116820180604052508101906105ab9190610659565b600360008573ffffffffffffffffffffffffffffffffffffffff1673ffffffffffffffffffffffffffffffffffffffff168152602001908152602001600020546105f591906107f4565b6105ff91906107c3565b9050919050565b60008135905061061581610948565b92915050565b60008151905061062a8161095f565b92915050565b60006020828403121561064257600080fd5b600061065084828501610606565b91505092915050565b60006020828403121561066b57600080fd5b60006106798482850161061b565b91505092915050565b61068b81610882565b82525050565b600061069e60148361075c565b91506106a98261091c565b602082019050919050565b60006106c1600083610751565b91506106cc82610945565b600082019050919050565b6106e0816108b4565b82525050565b60006106f1826106b4565b9150819050919050565b60006020820190506107106000830184610682565b92915050565b6000602082019050818103600083015261072f81610691565b9050919050565b600060208201905061074b60008301846106d7565b92915050565b600081905092915050565b600082825260208201905092915050565b6000610778826108b4565b9150610783836108b4565b9250827fffffffffffffffffffffffffffffffffffffffffffffffffffffffffffffffff038211156107b8576107b76108be565b5b828201905092915050565b60006107ce826108b4565b91506107d9836108b4565b9250826107e9576107e86108ed565b5b828204905092915050565b60006107ff826108b4565b915061080a836108b4565b9250817fffffffffffffffffffffffffffffffffffffffffffffffffffffffffffffffff0483118215151615610843576108426108be565b5b828202905092915050565b6000610859826108b4565b9150610864836108b4565b925082821015610877576108766108be565b5b828203905092915050565b600061088d82610894565b9050919050565b600073ffffffffffffffffffffffffffffffffffffffff82169050919050565b6000819050919050565b7f4e487b7100000000000000000000000000000000000000000000000000000000600052601160045260246000fd5b7f4e487b7100000000000000000000000000000000000000000000000000000000600052601260045260246000fd5b7f4661696c656420746f2073656e64206574686572000000000000000000000000600082015250565b50565b61095181610882565b811461095c57600080fd5b50565b610968816108b4565b811461097357600080fd5b5056fea26469706673582212203e0c4994c3a2b66dec60cebc12490752fd829a2e6634f35696bb1d41d084019664736f6c63430008040033",
  "immutableReferences": {},
  "source": "//SPDX-License-Identifier: MIT\npragma solidity ^0.8.0;\n\n\ninterface cETH {\n    \n    function mint() external payable; // to deposit to compound\n    function redeem(uint redeemTokens) external returns (uint); // to withdraw from compound\n    \n    //following 2 functions to determine how much you'll be able to withdraw\n    function exchangeRateStored() external view returns (uint); \n    function balanceOf(address owner) external view returns (uint256 balance);\n}\n\n\ncontract SolidBank {\n\n\n    uint totalContractBalance = 0;\n    \n    //Compound ETH cETH contract address\n    address COMPOUND_CETH_ADDRESS = 0x859e9d8a4edadfEDb5A2fF311243af80F85A91b8;\n    cETH ceth = cETH(COMPOUND_CETH_ADDRESS);\n\n    function getContractBalance() public view returns(uint){\n        return totalContractBalance;\n    }\n    \n    mapping(address => uint) balances;\n    \n    function addBalance() public payable {\n        //balances[msg.sender] = balances[msg.sender] + msg.value;\n        //totalContractBalance = totalContractBalance + msg.value;\n        \n        // send ethers to mint()\n        ceth.mint{value: msg.value}();\n\n        balances[msg.sender] = balances[msg.sender] + calculateBalances();\n        \n    }\n\n    function calculateBalances() public returns(uint256) {\n        uint oldBalance = getContractBalance();\n        totalContractBalance = ceth.balanceOf(address(this));\n\n        return totalContractBalance - oldBalance;\n    }\n\n\n    // functions to receive ether\n    receive() external payable {}\n\n    fallback() external payable {}\n    \n    function getBalance(address userAddress) public view returns(uint256) {\n        return balances[userAddress] * ceth.exchangeRateStored() / 1e18;\n    }\n\n\n    function withdraw() public payable {\n        \n        //Address to withdraw ETH into\n        address payable withdrawTo = payable(msg.sender);\n\n        uint amount = getBalance(msg.sender);\n\n        ceth.redeem(amount);\n\n        (bool sent, ) = withdrawTo.call{value: amount}(\"\");\n        require(sent, \"Failed to send ether\");\n        totalContractBalance -= balances[msg.sender];\n        balances[msg.sender] = 0;\n    }\n\n}",
  "sourcePath": "/Users/oluwatobi/Documents/dev_works/banger/solid_bank/contracts/SolidBank.sol",
  "compiler": {
    "name": "solc",
    "version": "0.8.4+commit.c7e474f2.Emscripten.clang"
  },
  "schemaVersion": "3.4.3",
  "updatedAt": "2022-04-27T08:31:59.359Z",
  "devdoc": {
    "kind": "dev",
    "methods": {},
    "version": 1
  },
  "userdoc": {
    "kind": "user",
    "methods": {},
    "version": 1
  }
}